:0C0000000C9479000C9400000C9400009B
:10000C000C9400000C9400000C9400000C94000064
:10001C000C9400000C9400000C9400000C94000054
:10002C000C9400000C9400000C9400000C94000044
:10003C000C9400000C9400000C9400000C94000034
:10004C000C9400000C9400003132334134353642AC
:10005C00373839432A302344313233343536373844
:10006C00392A30233A003B003900003A003B003972
:10007C0000013A003B003900023A003B0039000312
:10008C003A003B003900043A003B003900053A00C5
:10009C003B003900063A003B003900074B657920DC
:1000AC00507265737365643A0046310046320046FF
:1000BC0033004634004D6174726978204B65797059
:1000CC006164005265616479000080C010006002B8
:1000DC0054001C00700270001C008C028C0002008A
:1000EC00B902D6000000F894EE27ECBBF1E0FBBFA0
:1000FC00EBBFE5BF8DE0A2E0BB27ED938A95E9F756
:10010C0080E098E0A0E6ED930197E9F7E8EDF0E0E8
:10011C0085919591009761F0A591B59105901590F9
:10012C00BF01F00105900D920197E1F7FB01F0CFB3
:10013C00EFE5EDBFE8E0EEBFC0E6D2E00C94D500F1
:10014C00AA93B9D1E0E0EA93A0E0A8D1A8EAB0E084
:10015C000E948002E0E0EA93A1E0A0D1A881A13442
:10016C0029F4A5EBB0E00E94800217C0A881A2344C
:10017C0021F4A8EBB0E0BED110C0A881A33421F4C7
:10018C00ABEBB0E0B7D109C0A881A43421F4AEEB3D
:10019C00B0E0B0D102C0A88198D10C94BB02A0E110
:1001AC00BCD189D1E1E0EA93A0E078D1A1ECB0E038
:1001BC00A1D1E5E0EA93A1E071D1AFECB0E09AD126
:1001CC00A4E6B0E00E943003E8EAF2E0FA93EA9386
:1001DC00E4E0EA93EA93E0E7F2E0FA93EA93ECE8DE
:1001EC00F2E0FA93EA93E0E6F2E0FA93EA93A6EAF5
:1001FC00B0E00CD0E8EAF2E0FA93EA93A6EAB0E0B9
:10020C0022D1A8EAB2E06DD0FCCFFFCFBA93AA936B
:10021C001A93EA85AB85BC85EC93E985AB85BC85E7
:10022C001196EC93EF81F885AB85BC851296ED9316
:10023C00FC93ED81FE81AB85BC851496ED93FC930C
:10024C00EB81FC81AB85BC851696ED93FC93E98123
:10025C00FA81AB85BC851896ED93FC93AB85BC8578
:10026C001A9685D11C96E0E0EC93AB85BC851D9667
:10027C007ED184D110E0EA851E17A8F485D1AE0F8B
:10028C00BF1F0E948003FF93EF9389D1AF91BF9161
:10029C00EC937AD190D1FF93EF9381D1AF91BF9131
:1002AC00EC931F5FE8CF10E0E9851E17B8F489D1F5
:1002BC00AE0FBF1F0E948003FF93EF9380818CD100
:1002CC00E823AF91BF91EC937CD175D1FF93EF9361
:1002DC0066D1AF91BF91EC931F5FE6CF18812D963D
:1002EC000895BA93AA930E94840310E000E0AC81B5
:1002FC00BD81EC910E1708F04FC079D1CF01208150
:10030C006BD1E223DC01EC9330E0EC81FD81E181E7
:10031C003E17A8F5EC81FD81A481B581E32FF0E0B7
:10032C00BD01A7E0B0E00E944F030F01DB01AE0F4F
:10033C00BF1F14960E94800368D1A1E0B0E00E9418
:10034C004603A22FB0E0EA23FB233097B1F4EC81F3
:10035C00FD8166817781A02FBB27EC81FD81E18136
:10036C00F0E00E945703DF01E32FF0E0EA0FFB1FE0
:10037C00DB01AE0FBF1F1C9102C03F5FC6CF37D150
:10038C00CF0143D1A1E00E943E03E22BDC01EC93B0
:10039C00103011F40F5FABCF103009F449C0EC8171
:1003AC00FD81E485E117F1F0AC81BD811D9635D15D
:1003BC00A585B6851397A8F0E12FAC81BD811C965D
:1003CC00EC9333D1DBD0AC81BD8118960E948003B5
:1003DC00309739F0EC81FD8100841184A12FF0015C
:1003EC00099525C022D11F9618D1A785B089D2971F
:1003FC0081F0EC81FD81A785B089D39748F0A78562
:10040C00B089D297E4E1F0E00E946F03309709F0D5
:10041C000EC0AC81BD811A960E948003309739F0D2
:10042C00EC81FD8102841384A12FF001099507C092
:10043C00AC81BD811C96E0E0EC93F7D09FD00E947C
:10044C00890326960895BA93AA93E881F981AA8123
:10045C00BB811896ED93FC9324960895AA93E8B368
:10046C00EF70AE2FE881E07FEA2BE8BB82E08A9543
:10047C00F1F7C29A82E08A95F1F7C29882E08A95E8
:10048C00F1F773C0AA93A881E9DFE881E295E883CC
:10049C00A881E4DF81E18A95F1F767C0AA93E8812E
:1004AC00F0E0E754FD4FE081A981AE0FEBDF5980FE
:1004BC00488022960895A2E0C2D0ACE0E3DFA1E030
:1004CC00BED0E0E04E2E5E2E0895AA93A881AA30ED
:1004DC0011F0571448F0E0E0EA934394A42DDEDFCA
:1004EC00A881AA3009F441C05394C09AA881CADFEC
:1004FC00C0983BC0BA93AA931A93E981FA813196BA
:10050C00E983FA833197E4911E2FE03019F0A12F83
:10051C00DCDFF3CF188123960895AA93E7B3E06F3D
:10052C00E7BBBA9AB89AB99AC298C098C198788021
:10053C00E881E058E093BB02E881E054E093BC0210
:10054C00A4E1B0E00E9430037FD07ED07DD0A0E249
:10055C0085DF81E28A95F1F7A8E294DFA4E092DFCF
:10056C00A5E890DFA6E08EDFA6DF21960895E0E0F7
:10057C00F0E0ED93FC93AB85BC8508951F96E0E00D
:10058C00F0E0ED93FC930895E12FF0E06F81788516
:10059C00A7E0B0E00E944F030F01DB0108958081BA
:1005AC00F001DB01AE0FBF1F1696EC91A1E00E948B
:1005BC003E03E82B0895AE0FBF1F12960E948003D6
:1005CC000895E12FF0E06D817E81A7E0B0E00E94FC
:1005DC004F030F01DB010895F001DB01AE0FBF1FCC
:1005EC001696EC91A1E00E943E03E0950895EC81F3
:1005FC00FD81A281B381E02FF0E0BD01A7E0B0E066
:10060C000E944F030F01DB01D6CF2081F001DB01EB
:10061C00AE0FBF1F1696EC910895ED91FD9131969A
:10062C00FE93EE93EC81FD810895AC81BD811D9606
:10063C00E0E0F0E0ED93FC93AC81BD81089522DF06
:10064C00A3E0B0E00C943003A0E308DF81E28A95CC
:10065C00F1F70895109639F08AEF90E00197F1F7D1
:10066C00A8951197C9F70895F195E195F040089573
:10067C00EE230E2EEA2F19F0EE0F0A94E9F70895E7
:10068C00EE230E2EFD0121F0EE0FFF1F0A94E1F771
:10069C000895FA9FF02DEB9FF00DEA9FE02DF10DE0
:1006AC0008951AD0F6DF0EF4DFDF0895002411242C
:1006BC0090E1AA0FBB1F001C111C0E1A1F0A18F484
:1006CC000E0E1F1E01C0A1609A9599F7FD01D00175
:1006DC000895ECDFFD010895E894F7FF02C0C4DF34
:1006EC006894B7FF06C0A095B095119600F80394D6
:1006FC0000FA0895ED91FC91119708953A932A937D
:10070C001A930A9308953B812A81198108810895CF
:00000001FF
